:1000000036C050C069C04EC04DC04CC04BC04AC085
:1000100049C048C047C046C045C044C043C042C0B4
:1000200041C040C03FC009021200010100803C09EC
:10003000040000000000000012011001FF00000891
:10004000C016DC050001010200010A03540065002E
:10005000730074001603500068006C0074005F00A9
:100060006D0038006200720064000403090411246A
:100070001FBECFE5D4E0DEBFCDBF10E0A0E6B0E00C
:10008000ECEEF6E002C005900D92A236B107D9F76A
:1000900020E0A2E6B0E001C01D92A83AB207E1F765
:1000A000CDD222C3ADCFA82FB92F80E090E041E0A0
:1000B00050EA609530E009C02D9182279795879589
:1000C00010F084279527305EC8F36F5FA8F308957A
:1000D000EADF8D939D930895CF93CFB7CF93C395C8
:1000E000809BE9F7809B09C0809B07C0809B05C06F
:1000F000809B03C0809B01C0A1C0DF93C091890099
:10010000DD27C057DF4F809B02C0DF91EBCF2F93DD
:100110000F931F9300B32FEF00FB20F94F933F93F2
:1001200010B34FEF012700FB21F93BE031C04E7FB8
:10013000012F10B3216028C0102F4D7F22600000D6
:1001400000B329C04B7F2460012F000010B32BC0E7
:1001500010B3477F28602AC04F7E00B320612CC0B7
:100160004F7D10B320622FC04F7B00B3206432C09C
:10017000422700B349934FEF0000102710FB20F9EE
:1001800010B31970C9F1297F91F2012700FB21F901
:1001900000B3237F89F2315058F1102710FB22F968
:1001A00010B3277E79F2012700FB23F92F7C81F21F
:1001B00000B3102710FB24F92F7971F200C010B39F
:1001C000012700FB25F92F7359F200C000B3102757
:1001D00010FB26F9223040F200C010B3012700FBCB
:1001E00027F9243028F64F77206810B30000F9CFA4
:1001F00010E81ABF002717C03B503195C31BD040F1
:1002000010E81ABF0881033CE9F00B34D9F02091C3
:1002100087001981110F1213EDCF093641F10D320C
:1002200011F0013E39F700938E003F914F911F91DD
:100230000F912F91DF91CAB7C7FD51CFCF91CFBF9B
:10024000CF91189520918E00222379F310918C0084
:10025000112311F5343012F130938C002093880073
:10026000109189003BE0311B3093890017C0009149
:100270008C0001308CF40AE53091610034FD10C02F
:1002800000936100CCE7D0E00FC02795A8F451504F
:10029000A9F4220F0000F9CF4AE503C042ED01C0E6
:1002A000432FC4E1D0E032E011B31960909A11BB42
:1002B00002B320E419E05F93012756E002BB2795C3
:1002C00020F4515021F4220FF9CF012756E000000D
:1002D0003B5A02BBD0F2279528F4515029F4220F43
:1002E0000000F9CF012756E0279502BB20F45150BA
:1002F00021F4220FF9CF012756E02991332302BBC5
:1003000021F6067F10918D00110FC651D04002BB1F
:1003100011F01093870010E81ABF016011B3167F27
:10032000402F467F5F9100C000C002BB11BB42BBA3
:100330007CCFCF93DF9360918C00635067FDA5C0A5
:1003400080918900CCE0D0E0C81BD109C057DF4FB5
:10035000809188008D3209F087C0683009F093C021
:1003600083EC80937C008AE58093610010926200A8
:100370008881807639F0CE0127D1982F8F3F09F4FC
:1003800062C068C09A81109285008981811106C07F
:100390001092860025E830E092E050C0853019F4D4
:1003A00090938D003DC08630A9F58B81813019F482
:1003B00088E390E004C0823041F486E290E09093BC
:1003C0008B0080938A0092E121C08330F1F4911177
:1003D00008C08AE690E090938B0080938A0094E0B6
:1003E00015C0913041F484E590E090938B008093A8
:1003F0008A0096E10BC0923041F48AE490E0909339
:100400008B0080938A009AE001C090E080E48093A2
:10041000620020C0883079F0893031F490938F00E9
:1004200025E830E090E00AC091E08A3009F090E0E1
:1004300025E830E003C02FE830E091E030938B00F6
:1004400020938A0007C0888187FD9E8180E8809381
:10045000620007C08F81811104C08E81891708F462
:10046000982F909360000FC08091620087FF0BC0AF
:10047000CE01C9D08F3F21F48EE18093610003C08B
:1004800081111092600010928C008091610084FFB5
:1004900041C0809160008F3F09F43CC0C82F893073
:1004A00008F0C8E08C1B8093600090917C0088E885
:1004B000892780937C00CC2301F180918A00909160
:1004C0008B00309162002C2F280FADE7B0E0FC01CB
:1004D00036FF06C034913D9331962E13FBCF04C0F6
:1004E00031913D932E13FCCF01962FEF2C0F820FED
:1004F000911D90938B0080938A006C2F8DE790E084
:10050000E7DD64E06C0F6C3019F08FEF80936000D2
:100510006093610084E190B3997031F48150D9F710
:1005200010928D0010928700DF91CF91089585B7CA
:100530008C6085BF8BB780688BBF089597B1892B7E
:1005400087B986B1866086B986B1682B66B9089589
:1005500097B1987F97B997B1892B87B9369A369911
:10056000FECF3D9B03C085B190E0089584B195B165
:100570000895EF92FF920F931F93CF93DF9303E6BB
:1005800010E0C0E0D0E0E82EF12CC7010C2E02C034
:10059000959587950A94E2F780FF05C08C2FD8DFE8
:1005A000F8019183808321960E5F1F4FC630D105DD
:1005B00061F783E690E0DF91CF911F910F91FF905B
:1005C000EF90089537980895FC012181223019F0A9
:1005D000243049F014C083E790E090938B0080931F
:1005E0008A0088E00895FC01868180937100109252
:1005F0007200893030F088E08093710002C080E0A2
:1006000008958FEF08953091710020917200620F6C
:10061000231738F02093720081E0231771F080E0F7
:1006200008952617B9F3E22FF0E0DC014D91CD01DA
:10063000ED58FF4F40832F5FEBCF089583E0809309
:1006400077008FEF80937600A59AAD9A84B38E6180
:1006500084BBAA98A99A60EC85E470DF9EE088E1EB
:100660000FB6F894A89581BD0FBE91BD60DF889A42
:100670008AEFA895EFE6F7E13197F1F700C00000A7
:100680008150B9F788987894C1E0D0E0A89585E0CA
:100690005FDF24B135B1232F23702093750024B17F
:1006A00035B120937400C130D105A9F420917700B1
:1006B0002093A700209176002093A6002091A60009
:1006C0003091A7002817390710F4AC9A02C0AC98F3
:1006D000AB9ACAEFD0E0219787EB9BE00197F1F747
:0C06E00000C0000026DED2CFF894FFCF4F
:0206EC00FF5AB3
:00000001FF
