:1000000036C050C069C04EC04DC04CC04BC04AC085
:1000100049C048C047C046C045C044C043C042C0B4
:1000200041C040C03FC004030904160350006800EB
:100030006C0074005F006D003800620072006400A4
:100040000A03540065007300740012011001FF00E0
:100050000008C016DC0500010102000109021200BF
:10006000010100803C090400000000000000112490
:100070001FBECFE5D4E0DEBFCDBF12E0A0E6B0E00A
:10008000EEE6F9E002C005900D92A634B107D9F76B
:1000900012E0A6E4B2E001C01D92AC38B107E1F76E
:1000A000D1D263C4ADCFA82FB92F80E090E041E05A
:1000B00050EA609530E009C02D9182279795879589
:1000C00010F084279527305EC8F36F5FA8F308957A
:1000D000EADF8D939D930895CF93CFB7CF93C395C8
:1000E000809BE9F7809B09C0809B07C0809B05C06F
:1000F000809B03C0809B01C0A1C0DF93C0916D02B3
:10010000DD27CC58DD4F809B02C0DF91EBCF2F93D2
:100110000F931F9300B32FEF00FB20F94F933F93F2
:1001200010B34FEF012700FB21F93BE031C04E7FB8
:10013000012F10B3216028C0102F4D7F22600000D6
:1001400000B329C04B7F2460012F000010B32BC0E7
:1001500010B3477F28602AC04F7E00B320612CC0B7
:100160004F7D10B320622FC04F7B00B3206432C09C
:10017000422700B349934FEF0000102710FB20F9EE
:1001800010B31970C9F1297F91F2012700FB21F901
:1001900000B3237F89F2315058F1102710FB22F968
:1001A00010B3277E79F2012700FB23F92F7C81F21F
:1001B00000B3102710FB24F92F7971F200C010B39F
:1001C000012700FB25F92F7359F200C000B3102757
:1001D00010FB26F9223040F200C010B3012700FBCB
:1001E00027F9243028F64F77206810B30000F9CFA4
:1001F00010E81ABF002717C03B503195C31BD040F1
:1002000010E81ABF0881033CE9F00B34D9F02091C3
:100210006B021981110F1213EDCF093641F10D3226
:1002200011F0013E39F7009372023F914F911F91F7
:100230000F912F91DF91CAB7C7FD51CFCF91CFBF9B
:10024000CF91189520917202222379F310917002B8
:10025000112311F5343012F13093700220936C02A7
:1002600010916D023BE0311B30936D0217C000917D
:10027000700201308CF40AE53091640034FD10C046
:1002800000936400C0E6D2E00FC02795A8F4515057
:10029000A9F4220F0000F9CF4AE503C042ED01C0E6
:1002A000432FC4E1D0E032E011B31960909A11BB42
:1002B00002B320E419E05F93012756E002BB2795C3
:1002C00020F4515021F4220FF9CF012756E000000D
:1002D0003B5A02BBD0F2279528F4515029F4220F43
:1002E0000000F9CF012756E0279502BB20F45150BA
:1002F00021F4220FF9CF012756E02991332302BBC5
:1003000021F6067F10917102110FC651D04002BB39
:1003100011F010936B0210E81ABF016011B3167F41
:10032000402F467F5F9100C000C002BB11BB42BBA3
:100330007CCF1F93CF93DF9360917002635067FD72
:10034000A4C080916D02CCE0D0E0C81BD109CC588C
:10035000DD4F80916C028D3209F085C0683009F064
:1003600092C083EC809360028AE5809364001092CF
:1003700046028881807631F0CE012AD18F3F09F480
:1003800061C067C09A81109269028981882331F423
:1003900010926A0229E632E082E04FC0853019F4FB
:1003A0009093710240C08630A9F58B81813019F499
:1003B0008AE490E004C0823041F48CE590E09093B0
:1003C0006F0280936E0282E121C08330F1F49923A1
:1003D00041F486E290E090936F0280936E0284E095
:1003E00015C0913041F48AE290E090936F028093BF
:1003F0006E0286E10BC0923041F480E490E090936D
:100400006F0280936E028AE001C080E090E49093D6
:1004100046021FC0883059F0893019F49093730256
:1004200002C08A3039F029E632E080E006C023E7D6
:1004300032E002C029E632E081E030936F0220937F
:100440006E0207C0988197FD8E8190E890934602D6
:1004500007C09F81992321F49E81981708F4892F62
:100460008093650010C08091460287FF0CC0CE01CA
:10047000CED08F3F21F48EE18093640004C08823A6
:1004800011F010926500109270028091640084FF58
:1004900043C0809165008F3F09F43EC0182F89301A
:1004A00008F018E0811B809365008091600298E855
:1004B000892780936002112319F180916E02909137
:1004C0006F022091460226FF0AC0FC01212FA1E6FF
:1004D000B2E034913D9331962150D9F708C0DC0148
:1004E000212FE1E6F2E03D9131932150E1F70196B1
:1004F000212F2150820F911D90936F0280936E02E5
:1005000081E692E0612FE4DD1C5F1C3019F08FEF73
:10051000809365001093640084E190B3997031F486
:100520008150D9F71092710210926B02DF91CF9136
:100530001F91089585B78C6085BF8BB780688BBF8E
:10054000089597B1982B97B986B1866086B986B120
:10055000682B66B9089597B1987F97B997B1982B92
:1005600097B9369A3699FECF3D9B03C025B130E04E
:1005700002C024B135B1C9010895EF92FF920F93E3
:100580001F93CF93DF9307E412E0C0E0D0E0E82EA2
:10059000FF24C7010C2E02C0959587950A94E2F7B7
:1005A00080FF05C08C2FD7DFF801918380832196CF
:1005B0000E5F1F4FC630D10561F787E492E0DF91EF
:1005C000CF911F910F91FF90EF9008953798089564
:1005D000FC018181823019F08430A9F408C086E5DD
:1005E00092E090936F0280936E0288E00895868176
:1005F00080935F0210925E02893038F088E0809329
:100600005F028FEF089580E008958FEF08952091A5
:100610005F02A0915E02E82FF92F06C0B0E0919131
:10062000AA5ABD4F9C93A32FA21730F43A2F3F5FD5
:100630009E2F981B961790F3A0935E0281E0A21361
:1006400080E00895CF93DF9383E080935A028FEF89
:1006500080935902A598AD9884B38E6184BBAA9803
:10066000A99A85E460EC6DDF2EE088E190E00FB69A
:10067000F894A89581BD0FBE21BD5CDF889A8AEFF2
:10068000A895EFE6F7E13197F1F700C0000081503F
:10069000B9F788987894C1E0D0E0A89585E05BDF51
:1006A00024B135B1232F23702093580224B135B1E2
:1006B00020935702C130D105A9F420915A0220930A
:1006C0008B022091590220938A0220918A02309154
:1006D0008B022817390710F4AC9A02C0AC98AB9A79
:1006E000CAEFD0E0219787EB9BE00197F1F700C0BC
:1006F00000001FDED2CF9798882311F0959A01C091
:1007000095986FB9779BFECF979A089581E060E046
:10071000F2DF81E06CE3EFDF81E06EE7ECDF81E0A8
:100720006EE7E9DF81E06CEFE6DF81E068EFE3DFB1
:1007300081E06CEFE0DF81E06EE7DDDF81E06EE716
:10074000DADF81E06CE3D7DF81E060E0D4DF089599
:100750000F931F93CF93DF93082F81E060E0CBDFEF
:10076000202F30E020523040E901CC0FDD1FCC0FAC
:10077000DD1FC20FD31FCA59DF4F85E0089F8001DC
:10078000112405531040699181E0B5DFC017D107EE
:10079000D1F781E060E0AFDFDF91CF911F910F9142
:1007A0000895EF92FF92CF93DF93E82EE7017E0149
:1007B000F92EE70101C0CCDF89918823E1F7DF91B1
:1007C000CF91FF90EF9008951F93162F682F6068C8
:1007D00080E091DF612F606480E08DDF1F910895DC
:1007E000CF93DF9380E06CE086DF80E060E883DF1A
:1007F000C8EFD1E081E060E07EDF2197D9F7DF919B
:10080000CF910895949881B3806B81BB87B3886240
:1008100087BBBA9A81E58DB987EC9FEA0197F1F71A
:1008200000C00000949894E09A95F1F7949A9798F4
:1008300084E08A95F1F7979A94E09A95F1F780E031
:1008400061E259DF80E068EC56DF80E066E053DF6C
:1008500080E063E150DF80E060E24DDFC1DF80E0F7
:100860006CE049DF979884E08A95F1F708950F933B
:100870001F93CF93DF93EC018A30910528F06AE053
:1008800070E05FD0CB01F3DF81E060E034DFCE01C8
:100890006AE070E056D04096EC01CC0FDD1FCC0F23
:1008A000DD1FC80FD91FCA59DF4F00E010E0699162
:1008B00081E021DF0F5F1F4F05301105C1F781E097
:1008C00060E019DFDF91CF911F910F910895EF92B2
:1008D000FF920F931F93CF93DF93082F80E690E052
:1008E00060DFC7E0D0E010E031E0E32EF12CC7017B
:1008F0000C2E02C0880F991F0A94E2F780239123DF
:100900000C2E02C0959587950A94E2F7B0DF2197E7
:1009100071F7C80181709070AADFDF91CF911F91AC
:100920000F91FF90EF90089587B38B6287BBBA9ABF
:100930008DB181658DB908958FB9779BFECF8FB149
:100940000895AA1BBB1B51E107C0AA1FBB1FA61716
:10095000B70710F0A61BB70B881F991F5A95A9F768
:0E09600080959095BC01CD010895F894FFCFCD
:10096E00623A20005AFF000000000000005F000005
:10097E000007000700147F147F14242A7F2A1223F5
:10098E001308646236495522500005030000001C0E
:10099E002241000041221C0014083E081408083EA3
:1009AE0008080050300000080808080800606000C1
:1009BE000020100804023E5149453E00427F40008F
:1009CE0042615149462141454B311814127F10277F
:1009DE00454545393C4A49493001710905033649B7
:1009EE00494936064949291E00363600000056365A
:1009FE00000008142241001414141414004122148F
:100A0E00080201510906324979413E7E1111117ECB
:100A1E007F494949363E414141227F4141221C7F57
:100A2E00494949417F090909013E4149497A7F08EF
:100A3E0008087F00417F41002040413F017F08149C
:100A4E0022417F404040407F020C027F7F0408100D
:100A5E007F3E4141413E7F090909063E4151215EDB
:100A6E007F09192946464949493101017F01013F54
:100A7E004040403F1F2040201F3F4038403F6314FE
:100A8E0008146307087008076151494543007F4108
:100A9E00410002040810200041417F0004020102BF
:100AAE000440404040400001020400205454547859
:100ABE007F484444383844444420384444487F38BE
:100ACE0054545418087E0901020C5252523E7F08AB
:100ADE0004047800447D40002040443D007F1028EF
:100AEE00440000417F40007C041804787C08040414
:100AFE007838444444387C14141408081414187CB0
:100B0E007C080404084854545420043F4440203CBC
:100B1E004040207C1C2040201C3C4030403C44285F
:100B2E001028440C5050503C4464544C4400083639
:100B3E00410000007F000000413608001008081038
:060B4E00087846414678DC
:00000001FF
