:1000000036C050C055C14EC04DC04CC04BC04AC098
:1000100049C048C047C046C045C044C043C042C0B4
:1000200041C040C03FC004030904160350006800EB
:100030006C0074005F006D003800620072006400A4
:100040000A03540065007300740012011001FF00E0
:100050000008C016DC0500010102000109021200BF
:10006000010100803C090400000000000000112490
:100070001FBECFE5D4E0DEBFCDBF10E0A0E6B0E00C
:10008000EAE5F5E002C005900D92A236B107D9F776
:1000900010E0A2E6B0E001C01D92AD38B107E1F773
:1000A0003FD259C2ADCF1F93CF93DF93809173009E
:1000B000835087FD88C09091700020916F002D3291
:1000C00009F07FC0883009F07CC0CCE0D0E0C91BCB
:1000D000D109C958DF4F83EC809363008AE5809390
:1000E0006000109262008881807619F0CE010DD2F6
:1000F0005FC09A8110926C008981882331F410923C
:100100006D002CE630E082E04FC0853019F490930A
:10011000740040C08630A9F58B81813019F48AE4DF
:1001200090E004C0823041F48CE590E0909372003E
:100130008093710082E121C08330F1F4992341F46E
:1001400086E290E0909372008093710084E015C085
:10015000913041F48AE290E09093720080937100B4
:1001600086E10BC0923041F480E490E090937200FD
:10017000809371008AE001C080E090E49093620077
:1001800017C0883059F0893019F49093760002C076
:100190008A3039F02CE630E080E006C026E730E017
:1001A00002C02CE630E081E03093720020937100B1
:1001B0009F81992321F49E81981708F4892F8093B9
:1001C0006100109273008091600084FF43C08091B1
:1001D00061008F3F09F43EC0182F893008F018E005
:1001E000811B809361008091630098E88927809348
:1001F0006300112319F18091710090917200209198
:10020000620026FF0AC0FC01212FA4E6B0E0349171
:100210003D9331962150D9F708C0DC01212FE4E647
:10022000F0E03D9131932150E1F70196212F2150CB
:10023000820F911D909372008093710084E690E08C
:10024000612F32D01C5F1C3019F08FEF809361005A
:100250001093600084E190B3997031F48150D9F724
:100260001092740010926E00DF91CF911F9108954B
:1002700085B78C6085BF8BB780688BBF0895A82F2A
:10028000B92F80E090E041E050EA609530E009C08D
:100290002D9182279795879510F084279527305EBA
:1002A000C8F36F5FA8F30895EADF8D939D930895D7
:1002B000CF93CFB7CF93C395809BE9F7809B09C0BD
:1002C000809B07C0809B05C0809B03C0809B01C0B2
:1002D000A1C0DF93C0917000DD27C958DF4F809B1C
:1002E00002C0DF91EBCF2F930F931F9300B32FEF3B
:1002F00000FB20F94F933F9310B34FEF012700FB12
:1003000021F93BE031C04E7F012F10B3216028C09E
:10031000102F4D7F2260000000B329C04B7F246066
:10032000012F000010B32BC010B3477F28602AC0F4
:100330004F7E00B320612CC04F7D10B320622FC0D0
:100340004F7B00B3206432C0422700B349934FEF84
:100350000000102710FB20F910B31970C9F1297F94
:1003600091F2012700FB21F900B3237F89F231507C
:1003700058F1102710FB22F910B3277E79F20127DC
:1003800000FB23F92F7C81F200B3102710FB24F926
:100390002F7971F200C010B3012700FB25F92F73EC
:1003A00059F200C000B3102710FB26F9223040F2AA
:1003B00000C010B3012700FB27F9243028F64F773F
:1003C000206810B30000F9CF10E81ABF002717C04B
:1003D0003B503195C31BD04010E81ABF0881033C45
:1003E000E9F00B34D9F020916E001981110F12132E
:1003F000EDCF093641F10D3211F0013E39F700938E
:1004000075003F914F911F910F912F91DF91CAB7C6
:10041000C7FD51CFCF91CFBFCF91189520917500D7
:10042000222379F310917300112311F5343012F166
:100430003093730020936F00109170003BE0311BEC
:100440003093700017C00091730001308CF40AE5FE
:100450003091600034FD10C000936000C3E6D0E02E
:100460000FC02795A8F45150A9F4220F0000F9CF2E
:100470004AE503C042ED01C0432FC4E1D0E032E0C1
:1004800011B31960909A11BB02B320E419E05F9395
:10049000012756E002BB279520F4515021F4220F8A
:1004A000F9CF012756E000003B5A02BBD0F2279556
:1004B00028F4515029F4220F0000F9CF012756E00B
:1004C000279502BB20F4515021F4220FF9CF0127C8
:1004D00056E02991332302BB21F6067F1091740068
:1004E000110FC651D04002BB11F010936E0010E8FE
:1004F0001ABF016011B3167F402F467F5F9100C085
:1005000000C002BB11BB42BB7CCFFC0181818823B0
:1005100021F0813019F4A89A01C0A89880E00895CC
:10052000A09A2EE088E190E00FB6F894A89581BDDE
:100530000FBE21BD9DDE889A8AEFA895EFE6F7E110
:100540003197F1F700C000008150B9F7889878948E
:0A055000A895A9DDFDCFF894FFCFB8
:02055A005AFF46
:00000001FF
